{
  "contractName": "SimpleLoan",
  "abi": [
    {
      "inputs": [],
      "payable": false,
      "stateMutability": "nonpayable",
      "type": "constructor"
    },
    {
      "anonymous": false,
      "inputs": [
        {
          "indexed": true,
          "internalType": "bytes32",
          "name": "loanId",
          "type": "bytes32"
        }
      ],
      "name": "Cancelled",
      "type": "event"
    },
    {
      "anonymous": false,
      "inputs": [
        {
          "indexed": true,
          "internalType": "bytes32",
          "name": "loanId",
          "type": "bytes32"
        }
      ],
      "name": "Closed",
      "type": "event"
    },
    {
      "anonymous": false,
      "inputs": [
        {
          "indexed": true,
          "internalType": "bytes32",
          "name": "loanId",
          "type": "bytes32"
        },
        {
          "indexed": true,
          "internalType": "address",
          "name": "borrower",
          "type": "address"
        },
        {
          "indexed": false,
          "internalType": "uint256",
          "name": "defaultedAmt",
          "type": "uint256"
        },
        {
          "indexed": false,
          "internalType": "uint256",
          "name": "loanAmt",
          "type": "uint256"
        }
      ],
      "name": "Defaulted",
      "type": "event"
    },
    {
      "anonymous": false,
      "inputs": [
        {
          "indexed": true,
          "internalType": "bytes32",
          "name": "loanId",
          "type": "bytes32"
        },
        {
          "indexed": false,
          "internalType": "uint256",
          "name": "amount",
          "type": "uint256"
        }
      ],
      "name": "FundWithdrawn",
      "type": "event"
    },
    {
      "anonymous": false,
      "inputs": [
        {
          "indexed": true,
          "internalType": "bytes32",
          "name": "loanId",
          "type": "bytes32"
        },
        {
          "indexed": false,
          "internalType": "uint256",
          "name": "amount",
          "type": "uint256"
        }
      ],
      "name": "Funded",
      "type": "event"
    },
    {
      "anonymous": false,
      "inputs": [
        {
          "indexed": true,
          "internalType": "bytes32",
          "name": "loanId",
          "type": "bytes32"
        },
        {
          "indexed": true,
          "internalType": "address",
          "name": "lender",
          "type": "address"
        },
        {
          "indexed": false,
          "internalType": "uint256",
          "name": "amount",
          "type": "uint256"
        }
      ],
      "name": "Funding",
      "type": "event"
    },
    {
      "anonymous": false,
      "inputs": [
        {
          "indexed": true,
          "internalType": "address",
          "name": "previousOwner",
          "type": "address"
        },
        {
          "indexed": true,
          "internalType": "address",
          "name": "newOwner",
          "type": "address"
        }
      ],
      "name": "OwnershipTransferred",
      "type": "event"
    },
    {
      "anonymous": false,
      "inputs": [
        {
          "indexed": true,
          "internalType": "bytes32",
          "name": "loanId",
          "type": "bytes32"
        },
        {
          "indexed": true,
          "internalType": "address",
          "name": "lender",
          "type": "address"
        },
        {
          "indexed": false,
          "internalType": "uint256",
          "name": "amount",
          "type": "uint256"
        }
      ],
      "name": "Refunded",
      "type": "event"
    },
    {
      "anonymous": false,
      "inputs": [
        {
          "indexed": true,
          "internalType": "bytes32",
          "name": "loanId",
          "type": "bytes32"
        },
        {
          "indexed": false,
          "internalType": "uint256",
          "name": "amount",
          "type": "uint256"
        }
      ],
      "name": "Repaid",
      "type": "event"
    },
    {
      "anonymous": false,
      "inputs": [
        {
          "indexed": true,
          "internalType": "bytes32",
          "name": "loanId",
          "type": "bytes32"
        },
        {
          "indexed": true,
          "internalType": "address",
          "name": "borrower",
          "type": "address"
        },
        {
          "indexed": false,
          "internalType": "address",
          "name": "owner",
          "type": "address"
        }
      ],
      "name": "Requesting",
      "type": "event"
    },
    {
      "anonymous": false,
      "inputs": [
        {
          "indexed": true,
          "internalType": "bytes32",
          "name": "loanId",
          "type": "bytes32"
        }
      ],
      "name": "Resumed",
      "type": "event"
    },
    {
      "anonymous": false,
      "inputs": [
        {
          "indexed": true,
          "internalType": "bytes32",
          "name": "loanId",
          "type": "bytes32"
        }
      ],
      "name": "Stopped",
      "type": "event"
    },
    {
      "constant": true,
      "inputs": [],
      "name": "balance",
      "outputs": [
        {
          "internalType": "uint256",
          "name": "",
          "type": "uint256"
        }
      ],
      "payable": false,
      "stateMutability": "view",
      "type": "function"
    },
    {
      "constant": true,
      "inputs": [],
      "name": "borrower",
      "outputs": [
        {
          "internalType": "address",
          "name": "",
          "type": "address"
        }
      ],
      "payable": false,
      "stateMutability": "view",
      "type": "function"
    },
    {
      "constant": true,
      "inputs": [],
      "name": "dueDate",
      "outputs": [
        {
          "internalType": "uint256",
          "name": "",
          "type": "uint256"
        }
      ],
      "payable": false,
      "stateMutability": "view",
      "type": "function"
    },
    {
      "constant": true,
      "inputs": [],
      "name": "id",
      "outputs": [
        {
          "internalType": "bytes32",
          "name": "",
          "type": "bytes32"
        }
      ],
      "payable": false,
      "stateMutability": "view",
      "type": "function"
    },
    {
      "constant": true,
      "inputs": [],
      "name": "info",
      "outputs": [
        {
          "internalType": "bytes32",
          "name": "p_id",
          "type": "bytes32"
        },
        {
          "internalType": "enum Loan.Status",
          "name": "p_status",
          "type": "uint8"
        },
        {
          "internalType": "uint256",
          "name": "p_balance",
          "type": "uint256"
        },
        {
          "internalType": "uint256",
          "name": "p_loanAmount",
          "type": "uint256"
        },
        {
          "internalType": "uint256",
          "name": "p_ownedAmount",
          "type": "uint256"
        },
        {
          "internalType": "address",
          "name": "p_borrower",
          "type": "address"
        },
        {
          "internalType": "address",
          "name": "p_owner",
          "type": "address"
        },
        {
          "internalType": "uint256",
          "name": "p_lenderCount",
          "type": "uint256"
        },
        {
          "internalType": "uint256",
          "name": "p_dueDate",
          "type": "uint256"
        },
        {
          "internalType": "uint256",
          "name": "p_now",
          "type": "uint256"
        }
      ],
      "payable": false,
      "stateMutability": "view",
      "type": "function"
    },
    {
      "constant": true,
      "inputs": [],
      "name": "isOwner",
      "outputs": [
        {
          "internalType": "bool",
          "name": "",
          "type": "bool"
        }
      ],
      "payable": false,
      "stateMutability": "view",
      "type": "function"
    },
    {
      "constant": true,
      "inputs": [
        {
          "internalType": "uint256",
          "name": "idx",
          "type": "uint256"
        }
      ],
      "name": "lenderAddressAt",
      "outputs": [
        {
          "internalType": "address",
          "name": "",
          "type": "address"
        }
      ],
      "payable": false,
      "stateMutability": "view",
      "type": "function"
    },
    {
      "constant": true,
      "inputs": [
        {
          "internalType": "uint256",
          "name": "idx",
          "type": "uint256"
        }
      ],
      "name": "lenderAt",
      "outputs": [
        {
          "internalType": "address",
          "name": "p_lender",
          "type": "address"
        },
        {
          "internalType": "uint256",
          "name": "p_lendingAmount",
          "type": "uint256"
        },
        {
          "internalType": "uint256",
          "name": "p_repaidAmount",
          "type": "uint256"
        },
        {
          "internalType": "uint256",
          "name": "p_refundedAmount",
          "type": "uint256"
        },
        {
          "internalType": "uint256",
          "name": "p_interestRate",
          "type": "uint256"
        }
      ],
      "payable": false,
      "stateMutability": "view",
      "type": "function"
    },
    {
      "constant": true,
      "inputs": [
        {
          "internalType": "address",
          "name": "addr",
          "type": "address"
        }
      ],
      "name": "lenderBy",
      "outputs": [
        {
          "internalType": "address",
          "name": "p_lender",
          "type": "address"
        },
        {
          "internalType": "uint256",
          "name": "p_lendingAmount",
          "type": "uint256"
        },
        {
          "internalType": "uint256",
          "name": "p_repaidAmount",
          "type": "uint256"
        },
        {
          "internalType": "uint256",
          "name": "p_refundedAmount",
          "type": "uint256"
        },
        {
          "internalType": "uint256",
          "name": "p_interestRate",
          "type": "uint256"
        }
      ],
      "payable": false,
      "stateMutability": "view",
      "type": "function"
    },
    {
      "constant": true,
      "inputs": [],
      "name": "lenderCount",
      "outputs": [
        {
          "internalType": "uint256",
          "name": "",
          "type": "uint256"
        }
      ],
      "payable": false,
      "stateMutability": "view",
      "type": "function"
    },
    {
      "constant": true,
      "inputs": [],
      "name": "loanAmount",
      "outputs": [
        {
          "internalType": "uint256",
          "name": "",
          "type": "uint256"
        }
      ],
      "payable": false,
      "stateMutability": "view",
      "type": "function"
    },
    {
      "constant": true,
      "inputs": [],
      "name": "noww",
      "outputs": [
        {
          "internalType": "uint256",
          "name": "",
          "type": "uint256"
        }
      ],
      "payable": false,
      "stateMutability": "view",
      "type": "function"
    },
    {
      "constant": true,
      "inputs": [],
      "name": "ownedAmount",
      "outputs": [
        {
          "internalType": "uint256",
          "name": "",
          "type": "uint256"
        }
      ],
      "payable": false,
      "stateMutability": "view",
      "type": "function"
    },
    {
      "constant": true,
      "inputs": [],
      "name": "owner",
      "outputs": [
        {
          "internalType": "address",
          "name": "",
          "type": "address"
        }
      ],
      "payable": false,
      "stateMutability": "view",
      "type": "function"
    },
    {
      "constant": false,
      "inputs": [],
      "name": "renounceOwnership",
      "outputs": [],
      "payable": false,
      "stateMutability": "nonpayable",
      "type": "function"
    },
    {
      "constant": false,
      "inputs": [],
      "name": "resume",
      "outputs": [],
      "payable": false,
      "stateMutability": "nonpayable",
      "type": "function"
    },
    {
      "constant": true,
      "inputs": [],
      "name": "status",
      "outputs": [
        {
          "internalType": "enum Loan.Status",
          "name": "",
          "type": "uint8"
        }
      ],
      "payable": false,
      "stateMutability": "view",
      "type": "function"
    },
    {
      "constant": false,
      "inputs": [],
      "name": "stop",
      "outputs": [],
      "payable": false,
      "stateMutability": "nonpayable",
      "type": "function"
    },
    {
      "constant": false,
      "inputs": [
        {
          "internalType": "address",
          "name": "newOwner",
          "type": "address"
        }
      ],
      "name": "transferOwnership",
      "outputs": [],
      "payable": false,
      "stateMutability": "nonpayable",
      "type": "function"
    },
    {
      "constant": false,
      "inputs": [
        {
          "internalType": "address",
          "name": "borrower",
          "type": "address"
        },
        {
          "internalType": "uint256",
          "name": "amount",
          "type": "uint256"
        }
      ],
      "name": "request",
      "outputs": [],
      "payable": false,
      "stateMutability": "nonpayable",
      "type": "function"
    },
    {
      "constant": false,
      "inputs": [
        {
          "internalType": "uint256",
          "name": "IRate",
          "type": "uint256"
        }
      ],
      "name": "depositFund",
      "outputs": [],
      "payable": true,
      "stateMutability": "payable",
      "type": "function"
    },
    {
      "constant": false,
      "inputs": [],
      "name": "refund",
      "outputs": [],
      "payable": true,
      "stateMutability": "payable",
      "type": "function"
    },
    {
      "constant": false,
      "inputs": [],
      "name": "withdrawToBorrower",
      "outputs": [],
      "payable": true,
      "stateMutability": "payable",
      "type": "function"
    },
    {
      "constant": false,
      "inputs": [],
      "name": "repay",
      "outputs": [],
      "payable": true,
      "stateMutability": "payable",
      "type": "function"
    },
    {
      "constant": false,
      "inputs": [],
      "name": "withdrawToLenders",
      "outputs": [],
      "payable": true,
      "stateMutability": "payable",
      "type": "function"
    },
    {
      "constant": false,
      "inputs": [],
      "name": "toDefault",
      "outputs": [],
      "payable": false,
      "stateMutability": "nonpayable",
      "type": "function"
    },
    {
      "constant": false,
      "inputs": [],
      "name": "cancel",
      "outputs": [],
      "payable": false,
      "stateMutability": "nonpayable",
      "type": "function"
    }
  ],
  "bytecode": "0x60806040523480156200001157600080fd5b50336000806101000a81548173ffffffffffffffffffffffffffffffffffffffff021916908373ffffffffffffffffffffffffffffffffffffffff1602179055506000809054906101000a900473ffffffffffffffffffffffffffffffffffffffff1673ffffffffffffffffffffffffffffffffffffffff16600073ffffffffffffffffffffffffffffffffffffffff167f8be0079c531659141344cd1fd0a4f28419497f9722a3daafe3b4186f6b6457e060405160405180910390a36000600c60006101000a81548160ff02191690836008811115620000ee57fe5b02179055506200013b600260009054906101000a900473ffffffffffffffffffffffffffffffffffffffff166200012a6200014760201b60201c565b6200017060201b62002bd21760201c565b600181905550620001b3565b60008060009054906101000a900473ffffffffffffffffffffffffffffffffffffffff16905090565b600080428373ffffffffffffffffffffffffffffffffffffffff168573ffffffffffffffffffffffffffffffffffffffff16030190508060001b91505092915050565b612e1080620001c36000396000f3fe60806040526004361061019c5760003560e01c80637df1f1b9116100ec578063c8c01a551161008a578063ea8a1af011610064578063ea8a1af01461075f578063f2fde38b14610776578063fa0b0aaa146107c7578063ff1024f1146107de5761019c565b8063c8c01a55146106cf578063d2227acf1461072a578063d38da171146107555761019c565b80638f32d59b116100c65780638f32d59b1461061f5780639d585f7f1461064e578063af640d0f14610679578063b69ef8a8146106a45761019c565b80637df1f1b9146104da57806389946311146105315780638da5cb5b146105c85761019c565b8063402d888311610159578063590e1ae311610133578063590e1ae3146103e1578063715018a6146103eb578063751d115614610402578063786716fe146104af5761019c565b8063402d88831461037e57806343ba0cb114610388578063585e5d20146103b35761019c565b8063046f7da2146101a157806307da68f5146101b857806307e54798146101cf57806310919b4f146101fa578063200d2ed214610275578063370158ea146102ae575b600080fd5b3480156101ad57600080fd5b506101b66107e8565b005b3480156101c457600080fd5b506101cd6108ae565b005b3480156101db57600080fd5b506101e4610974565b6040518082815260200191505060405180910390f35b34801561020657600080fd5b506102336004803603602081101561021d57600080fd5b810190808035906020019092919050505061097e565b604051808273ffffffffffffffffffffffffffffffffffffffff1673ffffffffffffffffffffffffffffffffffffffff16815260200191505060405180910390f35b34801561028157600080fd5b5061028a6109bb565b6040518082600881111561029a57fe5b60ff16815260200191505060405180910390f35b3480156102ba57600080fd5b506102c36109d2565b604051808b81526020018a60088111156102d957fe5b60ff1681526020018981526020018881526020018781526020018673ffffffffffffffffffffffffffffffffffffffff1673ffffffffffffffffffffffffffffffffffffffff1681526020018573ffffffffffffffffffffffffffffffffffffffff1673ffffffffffffffffffffffffffffffffffffffff1681526020018481526020018381526020018281526020019a505050505050505050505060405180910390f35b610386610a51565b005b34801561039457600080fd5b5061039d610ced565b6040518082815260200191505060405180910390f35b6103df600480360360208110156103c957600080fd5b8101908080359060200190929190505050610cf5565b005b6103e9611492565b005b3480156103f757600080fd5b506104006118ab565b005b34801561040e57600080fd5b506104516004803603602081101561042557600080fd5b81019080803573ffffffffffffffffffffffffffffffffffffffff1690602001909291905050506119e4565b604051808673ffffffffffffffffffffffffffffffffffffffff1673ffffffffffffffffffffffffffffffffffffffff1681526020018581526020018481526020018381526020018281526020019550505050505060405180910390f35b3480156104bb57600080fd5b506104c4611b49565b6040518082815260200191505060405180910390f35b3480156104e657600080fd5b506104ef611b53565b604051808273ffffffffffffffffffffffffffffffffffffffff1673ffffffffffffffffffffffffffffffffffffffff16815260200191505060405180910390f35b34801561053d57600080fd5b5061056a6004803603602081101561055457600080fd5b8101908080359060200190929190505050611b7d565b604051808673ffffffffffffffffffffffffffffffffffffffff1673ffffffffffffffffffffffffffffffffffffffff1681526020018581526020018481526020018381526020018281526020019550505050505060405180910390f35b3480156105d457600080fd5b506105dd611ba9565b604051808273ffffffffffffffffffffffffffffffffffffffff1673ffffffffffffffffffffffffffffffffffffffff16815260200191505060405180910390f35b34801561062b57600080fd5b50610634611bd2565b604051808215151515815260200191505060405180910390f35b34801561065a57600080fd5b50610663611c29565b6040518082815260200191505060405180910390f35b34801561068557600080fd5b5061068e611c33565b6040518082815260200191505060405180910390f35b3480156106b057600080fd5b506106b9611c3d565b6040518082815260200191505060405180910390f35b3480156106db57600080fd5b50610728600480360360408110156106f257600080fd5b81019080803573ffffffffffffffffffffffffffffffffffffffff16906020019092919080359060200190929190505050611c45565b005b34801561073657600080fd5b5061073f611e57565b6040518082815260200191505060405180910390f35b61075d611e61565b005b34801561076b57600080fd5b5061077461216e565b005b34801561078257600080fd5b506107c56004803603602081101561079957600080fd5b81019080803573ffffffffffffffffffffffffffffffffffffffff16906020019092919050505061239e565b005b3480156107d357600080fd5b506107dc612424565b005b6107e6612619565b005b6107f0611bd2565b610862576040517f08c379a00000000000000000000000000000000000000000000000000000000081526004018080602001828103825260198152602001807f417574686f72697a656420666f72206f776e6572206f6e6c790000000000000081525060200191505060405180910390fd5b6000600c60016101000a81548160ff0219169083151502179055506001547f0f32c8acd3779bbdc4f25017f9d48e6a5d2a6741de679a4059bf2fff7456213c60405160405180910390a2565b6108b6611bd2565b610928576040517f08c379a00000000000000000000000000000000000000000000000000000000081526004018080602001828103825260198152602001807f417574686f72697a656420666f72206f776e6572206f6e6c790000000000000081525060200191505060405180910390fd5b6001600c60016101000a81548160ff0219169083151502179055506001547f1d19fd95a8301a83d3e02da59d47316f37bb99675c57158849e48e8b6d5cd1ba60405160405180910390a2565b6000600454905090565b6000600e600083815260200190815260200160002060009054906101000a900473ffffffffffffffffffffffffffffffffffffffff169050919050565b6000600c60009054906101000a900460ff16905090565b6000806000806000806000806000806109e9611c33565b99506109f36109bb565b98506109fd611c3d565b9750610a07611c29565b9650610a11610974565b9550610a1b611b53565b9450610a25611ba9565b9350610a2f611e57565b9250610a39611b49565b9150610a43610ced565b905090919293949596979899565b60036008811115610a5e57fe5b600c60009054906101000a900460ff166008811115610a7957fe5b14610aec576040517f08c379a00000000000000000000000000000000000000000000000000000000081526004018080602001828103825260198152602001807f5265717569726564205374617475733a2057697468647261770000000000000081525060200191505060405180910390fd5b60011515600c60019054906101000a900460ff1615151415610b59576040517f08c379a0000000000000000000000000000000000000000000000000000000008152600401808060200182810382526054815260200180612cf26054913960600191505060405180910390fd5b600260009054906101000a900473ffffffffffffffffffffffffffffffffffffffff1673ffffffffffffffffffffffffffffffffffffffff163373ffffffffffffffffffffffffffffffffffffffff1614610c1c576040517f08c379a000000000000000000000000000000000000000000000000000000000815260040180806020018281038252601d8152602001807f417574686f72697a656420666f7220626f72726f776572206f6e6c792e00000081525060200191505060405180910390fd5b6004543414610c76576040517f08c379a000000000000000000000000000000000000000000000000000000000815260040180806020018281038252602b815260200180612cc7602b913960400191505060405180910390fd5b346004600082825403925050819055506004600c60006101000a81548160ff02191690836008811115610ca557fe5b0217905550426009819055506001547f7386151a988d74496e6fc96f665998a762fa92fc6693880496a4d6785b2fdd23346040518082815260200191505060405180910390a2565b600042905090565b60016008811115610d0257fe5b600c60009054906101000a900460ff166008811115610d1d57fe5b14610d90576040517f08c379a00000000000000000000000000000000000000000000000000000000081526004018080602001828103825260188152602001807f5265717569726564205374617475733a2046756e64696e67000000000000000081525060200191505060405180910390fd5b60011515600c60019054906101000a900460ff1615151415610dfd576040517f08c379a0000000000000000000000000000000000000000000000000000000008152600401808060200182810382526054815260200180612cf26054913960600191505060405180910390fd5b600354341115610e58576040517f08c379a000000000000000000000000000000000000000000000000000000000815260040180806020018281038252602c815260200180612db0602c913960400191505060405180910390fd5b60045460035403341115610eb7576040517f08c379a0000000000000000000000000000000000000000000000000000000008152600401808060200182810382526032815260200180612c956032913960400191505060405180910390fd5b600073ffffffffffffffffffffffffffffffffffffffff16600d60003373ffffffffffffffffffffffffffffffffffffffff1673ffffffffffffffffffffffffffffffffffffffff16815260200190815260200160002060000160009054906101000a900473ffffffffffffffffffffffffffffffffffffffff1673ffffffffffffffffffffffffffffffffffffffff1614610fbb576040517f08c379a00000000000000000000000000000000000000000000000000000000081526004018080602001828103825260108152602001807f4578697374696e67206c656e6465722e0000000000000000000000000000000081525060200191505060405180910390fd5b610fc3611ba9565b73ffffffffffffffffffffffffffffffffffffffff163373ffffffffffffffffffffffffffffffffffffffff161415611047576040517f08c379a000000000000000000000000000000000000000000000000000000000815260040180806020018281038252602d815260200180612c16602d913960400191505060405180910390fd5b600260009054906101000a900473ffffffffffffffffffffffffffffffffffffffff1673ffffffffffffffffffffffffffffffffffffffff163373ffffffffffffffffffffffffffffffffffffffff1614156110ee576040517f08c379a0000000000000000000000000000000000000000000000000000000008152600401808060200182810382526030815260200180612c436030913960400191505060405180910390fd5b6040518060a001604052803373ffffffffffffffffffffffffffffffffffffffff168152602001348152602001600081526020016000815260200182815250600d60003373ffffffffffffffffffffffffffffffffffffffff1673ffffffffffffffffffffffffffffffffffffffff16815260200190815260200160002060008201518160000160006101000a81548173ffffffffffffffffffffffffffffffffffffffff021916908373ffffffffffffffffffffffffffffffffffffffff1602179055506020820151816001015560408201518160020155606082015181600301556080820151816004015590505033600e6000600554815260200190815260200160002060006101000a81548173ffffffffffffffffffffffffffffffffffffffff021916908373ffffffffffffffffffffffffffffffffffffffff160217905550600560008154809291906001019190505550346004600082825401925050819055503373ffffffffffffffffffffffffffffffffffffffff166001547f567ee2fe3df8d4438b27a9f7d5fe1b33f94acd2c68f6a23dde69751fde18e12a346040518082815260200191505060405180910390a36003546112b0611c3d565b141561148f576002600c60006101000a81548160ff021916908360088111156112d557fe5b02179055504260078190555060008090505b600554811015611451576112f9612b8d565b600d6000600e600085815260200190815260200160002060009054906101000a900473ffffffffffffffffffffffffffffffffffffffff1673ffffffffffffffffffffffffffffffffffffffff1673ffffffffffffffffffffffffffffffffffffffff1681526020019081526020016000206040518060a00160405290816000820160009054906101000a900473ffffffffffffffffffffffffffffffffffffffff1673ffffffffffffffffffffffffffffffffffffffff1673ffffffffffffffffffffffffffffffffffffffff1681526020016001820154815260200160028201548152602001600382015481526020016004820154815250509050600073ffffffffffffffffffffffffffffffffffffffff16816000015173ffffffffffffffffffffffffffffffffffffffff16146114435780608001516004600082825401925050819055505b5080806001019150506112e7565b506001547f9f4592c3bd42bd33860ee93dc92d07f06e3f4fb6e19a9ca214982fe7c1bdb0376003546040518082815260200191505060405180910390a25b50565b60011515600c60019054906101000a900460ff16151514156114ff576040517f08c379a0000000000000000000000000000000000000000000000000000000008152600401808060200182810382526054815260200180612cf26054913960600191505060405180910390fd5b611507611bd2565b611579576040517f08c379a00000000000000000000000000000000000000000000000000000000081526004018080602001828103825260198152602001807f417574686f72697a656420666f72206f776e6572206f6e6c790000000000000081525060200191505060405180910390fd5b60008090505b60055481101561188457611591612b8d565b600d6000600e600085815260200190815260200160002060009054906101000a900473ffffffffffffffffffffffffffffffffffffffff1673ffffffffffffffffffffffffffffffffffffffff1673ffffffffffffffffffffffffffffffffffffffff1681526020019081526020016000206040518060a00160405290816000820160009054906101000a900473ffffffffffffffffffffffffffffffffffffffff1673ffffffffffffffffffffffffffffffffffffffff1673ffffffffffffffffffffffffffffffffffffffff1681526020016001820154815260200160028201548152602001600382015481526020016004820154815250509050600073ffffffffffffffffffffffffffffffffffffffff16816000015173ffffffffffffffffffffffffffffffffffffffff1614611876576000816020015190508082606001818152505081600d6000600e600087815260200190815260200160002060009054906101000a900473ffffffffffffffffffffffffffffffffffffffff1673ffffffffffffffffffffffffffffffffffffffff1673ffffffffffffffffffffffffffffffffffffffff16815260200190815260200160002060008201518160000160006101000a81548173ffffffffffffffffffffffffffffffffffffffff021916908373ffffffffffffffffffffffffffffffffffffffff1602179055506020820151816001015560408201518160020155606082015181600301556080820151816004015590505060008260000151905081600460008282540392505081905550826000015173ffffffffffffffffffffffffffffffffffffffff166108fc839081150290604051600060405180830381858888f19350505050158015611821573d6000803e3d6000fd5b508073ffffffffffffffffffffffffffffffffffffffff166001547ff552ca82e113ac3c539c3d617f29fcd19c172a0c75dad017555c9e109f7fe183846040518082815260200191505060405180910390a350505b50808060010191505061157f565b506006600c60006101000a81548160ff021916908360088111156118a457fe5b0217905550565b6118b3611bd2565b611925576040517f08c379a00000000000000000000000000000000000000000000000000000000081526004018080602001828103825260198152602001807f417574686f72697a656420666f72206f776e6572206f6e6c790000000000000081525060200191505060405180910390fd5b600073ffffffffffffffffffffffffffffffffffffffff166000809054906101000a900473ffffffffffffffffffffffffffffffffffffffff1673ffffffffffffffffffffffffffffffffffffffff167f8be0079c531659141344cd1fd0a4f28419497f9722a3daafe3b4186f6b6457e060405160405180910390a360008060006101000a81548173ffffffffffffffffffffffffffffffffffffffff021916908373ffffffffffffffffffffffffffffffffffffffff160217905550565b60008060008060008073ffffffffffffffffffffffffffffffffffffffff168673ffffffffffffffffffffffffffffffffffffffff161415611a4657600080600080600084945083935082925081915080905094509450945094509450611b40565b611a4e612b8d565b600d60008873ffffffffffffffffffffffffffffffffffffffff1673ffffffffffffffffffffffffffffffffffffffff1681526020019081526020016000206040518060a00160405290816000820160009054906101000a900473ffffffffffffffffffffffffffffffffffffffff1673ffffffffffffffffffffffffffffffffffffffff1673ffffffffffffffffffffffffffffffffffffffff16815260200160018201548152602001600282015481526020016003820154815260200160048201548152505090508060000151816020015182604001518360600151846080015184945095509550955095509550505b91939590929450565b6000600854905090565b6000600260009054906101000a900473ffffffffffffffffffffffffffffffffffffffff16905090565b6000806000806000611b96611b918761097e565b6119e4565b9450945094509450945091939590929450565b60008060009054906101000a900473ffffffffffffffffffffffffffffffffffffffff16905090565b60008060009054906101000a900473ffffffffffffffffffffffffffffffffffffffff1673ffffffffffffffffffffffffffffffffffffffff163373ffffffffffffffffffffffffffffffffffffffff1614905090565b6000600354905090565b6000600154905090565b600047905090565b600073ffffffffffffffffffffffffffffffffffffffff168273ffffffffffffffffffffffffffffffffffffffff161415611ce8576040517f08c379a00000000000000000000000000000000000000000000000000000000081526004018080602001828103825260108152602001807f4164647265737320697320656d7074790000000000000000000000000000000081525060200191505060405180910390fd5b60008111611d41576040517f08c379a0000000000000000000000000000000000000000000000000000000008152600401808060200182810382526022815260200180612c736022913960400191505060405180910390fd5b81600260006101000a81548173ffffffffffffffffffffffffffffffffffffffff021916908373ffffffffffffffffffffffffffffffffffffffff160217905550806003819055506001600c60006101000a81548160ff02191690836008811115611da857fe5b0217905550600260009054906101000a900473ffffffffffffffffffffffffffffffffffffffff1673ffffffffffffffffffffffffffffffffffffffff166001547f432cddca824392e0d67c28ed9c59e94789e1ecd6e170847a54ba420468b097f3611e12611ba9565b604051808273ffffffffffffffffffffffffffffffffffffffff1673ffffffffffffffffffffffffffffffffffffffff16815260200191505060405180910390a35050565b6000600554905090565b60026008811115611e6e57fe5b600c60009054906101000a900460ff166008811115611e8957fe5b14611efc576040517f08c379a00000000000000000000000000000000000000000000000000000000081526004018080602001828103825260178152602001807f5265717569726564205374617475733a2046756e64656400000000000000000081525060200191505060405180910390fd5b60011515600c60019054906101000a900460ff1615151415611f69576040517f08c379a0000000000000000000000000000000000000000000000000000000008152600401808060200182810382526054815260200180612cf26054913960600191505060405180910390fd5b600260009054906101000a900473ffffffffffffffffffffffffffffffffffffffff1673ffffffffffffffffffffffffffffffffffffffff163373ffffffffffffffffffffffffffffffffffffffff161461202c576040517f08c379a000000000000000000000000000000000000000000000000000000000815260040180806020018281038252601d8152602001807f417574686f72697a656420666f7220626f72726f776572206f6e6c792e00000081525060200191505060405180910390fd5b6000612036611c3d565b116120a9576040517f08c379a000000000000000000000000000000000000000000000000000000000815260040180806020018281038252601b8152602001807f5468652062616c616e636520697320302063757272656e746c792e000000000081525060200191505060405180910390fd5b6003600c60006101000a81548160ff021916908360088111156120c857fe5b02179055503373ffffffffffffffffffffffffffffffffffffffff166108fc6120ef611c3d565b9081150290604051600060405180830381858888f1935050505015801561211a573d6000803e3d6000fd5b504260068190555062015180600654016008819055506001547fa3b20715ecbfc0df1fd9080734769d9acd91e86de1cbd3625392170cdcfd6f146004546040518082815260200191505060405180910390a2565b60011515600c60019054906101000a900460ff16151514156121db576040517f08c379a0000000000000000000000000000000000000000000000000000000008152600401808060200182810382526054815260200180612cf26054913960600191505060405180910390fd5b600260009054906101000a900473ffffffffffffffffffffffffffffffffffffffff1673ffffffffffffffffffffffffffffffffffffffff163373ffffffffffffffffffffffffffffffffffffffff161480612269575061223a611ba9565b73ffffffffffffffffffffffffffffffffffffffff163373ffffffffffffffffffffffffffffffffffffffff16145b6122be576040517f08c379a0000000000000000000000000000000000000000000000000000000008152600401808060200182810382526026815260200180612d8a6026913960400191505060405180910390fd5b600660088111156122cb57fe5b600c60009054906101000a900460ff1660088111156122e657fe5b14806122f457506000600454145b612349576040517f08c379a0000000000000000000000000000000000000000000000000000000008152600401808060200182810382526044815260200180612d466044913960600191505060405180910390fd5b6007600c60006101000a81548160ff0219169083600881111561236857fe5b02179055506001547fbaa1eb22f2a492ba1a5fea61b8df4d27c6c8b5f3971e63bb58fa14ff72eedb7060405160405180910390a2565b6123a6611bd2565b612418576040517f08c379a00000000000000000000000000000000000000000000000000000000081526004018080602001828103825260198152602001807f417574686f72697a656420666f72206f776e6572206f6e6c790000000000000081525060200191505060405180910390fd5b61242181612a95565b50565b60011515600c60019054906101000a900460ff1615151415612491576040517f08c379a0000000000000000000000000000000000000000000000000000000008152600401808060200182810382526054815260200180612cf26054913960600191505060405180910390fd5b600260009054906101000a900473ffffffffffffffffffffffffffffffffffffffff1673ffffffffffffffffffffffffffffffffffffffff163373ffffffffffffffffffffffffffffffffffffffff16148061251f57506124f0611ba9565b73ffffffffffffffffffffffffffffffffffffffff163373ffffffffffffffffffffffffffffffffffffffff16145b612574576040517f08c379a0000000000000000000000000000000000000000000000000000000008152600401808060200182810382526026815260200180612d8a6026913960400191505060405180910390fd5b6005600c60006101000a81548160ff0219169083600881111561259357fe5b0217905550600260009054906101000a900473ffffffffffffffffffffffffffffffffffffffff1673ffffffffffffffffffffffffffffffffffffffff166001547f21382a74b434572c04970aea2623b00513ab62f964d9f8bca396d9e28a2c9f32600454600354604051808381526020018281526020019250505060405180910390a3565b6004600881111561262657fe5b600c60009054906101000a900460ff16600881111561264157fe5b146126b4576040517f08c379a00000000000000000000000000000000000000000000000000000000081526004018080602001828103825260178152602001807f5265717569726564205374617475733a2052657061696400000000000000000081525060200191505060405180910390fd5b60011515600c60019054906101000a900460ff1615151415612721576040517f08c379a0000000000000000000000000000000000000000000000000000000008152600401808060200182810382526054815260200180612cf26054913960600191505060405180910390fd5b612729611bd2565b61279b576040517f08c379a00000000000000000000000000000000000000000000000000000000081526004018080602001828103825260198152602001807f417574686f72697a656420666f72206f776e6572206f6e6c790000000000000081525060200191505060405180910390fd5b60008090505b600554811015612a3f576127b3612b8d565b600d6000600e600085815260200190815260200160002060009054906101000a900473ffffffffffffffffffffffffffffffffffffffff1673ffffffffffffffffffffffffffffffffffffffff1673ffffffffffffffffffffffffffffffffffffffff1681526020019081526020016000206040518060a00160405290816000820160009054906101000a900473ffffffffffffffffffffffffffffffffffffffff1673ffffffffffffffffffffffffffffffffffffffff1673ffffffffffffffffffffffffffffffffffffffff1681526020016001820154815260200160028201548152602001600382015481526020016004820154815250509050600073ffffffffffffffffffffffffffffffffffffffff16816000015173ffffffffffffffffffffffffffffffffffffffff1614612a3157806080015181602001510181604001818152505080600d6000600e600086815260200190815260200160002060009054906101000a900473ffffffffffffffffffffffffffffffffffffffff1673ffffffffffffffffffffffffffffffffffffffff1673ffffffffffffffffffffffffffffffffffffffff16815260200190815260200160002060008201518160000160006101000a81548173ffffffffffffffffffffffffffffffffffffffff021916908373ffffffffffffffffffffffffffffffffffffffff16021790555060208201518160010155604082015181600201556060820151816003015560808201518160040155905050806000015173ffffffffffffffffffffffffffffffffffffffff166108fc82604001519081150290604051600060405180830381858888f19350505050158015612a2f573d6000803e3d6000fd5b505b5080806001019150506127a1565b506008600c60006101000a81548160ff02191690836008811115612a5f57fe5b02179055506001547f7b6ac8bce3193cb9464e9070476bf8926e449f5f743f8c7578eea15265467d7960405160405180910390a2565b600073ffffffffffffffffffffffffffffffffffffffff168173ffffffffffffffffffffffffffffffffffffffff161415612acf57600080fd5b8073ffffffffffffffffffffffffffffffffffffffff166000809054906101000a900473ffffffffffffffffffffffffffffffffffffffff1673ffffffffffffffffffffffffffffffffffffffff167f8be0079c531659141344cd1fd0a4f28419497f9722a3daafe3b4186f6b6457e060405160405180910390a3806000806101000a81548173ffffffffffffffffffffffffffffffffffffffff021916908373ffffffffffffffffffffffffffffffffffffffff16021790555050565b6040518060a00160405280600073ffffffffffffffffffffffffffffffffffffffff168152602001600081526020016000815260200160008152602001600081525090565b600080428373ffffffffffffffffffffffffffffffffffffffff168573ffffffffffffffffffffffffffffffffffffffff16030190508060001b9150509291505056fe4f776e65722063616e27742062652061206c656e64657220696e207468652073616d6520636f6e74726163742e426f72726f7765722063616e27742062652061206c656e64657220696e207468652073616d6520636f6e74726163742e30206973206e6f7420612076616c696420626f72726f77696e6720616d6f756e742e4c656e64696e6720616d6f756e74206973206d6f7265207468616e2072656d61696e696e672066756e64206e65656465642e52657061696420616d6f756e74206e6f74207468652073616d6520617320616d6f756e74206f776e65642e546865207374617465206f662074686520636f6e74726163742069732073746f7070656420627920746865206f776e65722c206e6f206f7065726174696f6e7320616c6c6f7720617420746869732074696d652e43616e27742063616e63656c6c656420636f6e7472616374207768656e2066756e642069732070726f76696465642e2055736520726566756e642066756e6374696f6e2e417574686f72697a656420666f7220626f72726f776572206f72206f776e6572206f6e6c792e4c656e64696e6720616d6f756e74206973206d6f72652074686520616d6f756e74207265717565737465642ea265627a7a72315820206dee131bfe4852e0ef1af955de7b568b9d93eaaefeb95c5e2ce616793ee08164736f6c63430005100032",
  "source": "pragma solidity >=0.5.0;\n\nimport \"./Loan.sol\";\nimport {LoanUtil} from \"./LoanUtil.sol\";\n\n/**\n * @title Simple loan contract\n * @notice Simple loan contract inherit from the Loan contract that allows a borrower request loan that can be funded by \n * several lenders. Lender will deposit ether to the contract account, once it matches the loan\n * amount requested by the borrower, the borrower can withdraw the fund to its account. Once ready, \n * the borrower can repay the loan by deposit the money to the contract account. The lender can withdraw the \n * fund back from the contract to their wallets account.\n * @dev The simple loan contract is to demonstrate basic deposit and withdrawal of ether between contracts and \n * wallets\n */\ncontract SimpleLoan is Loan {\n    \n    /**\n     * @dev Default constructor to setup the initial simple loan contract\n     */\n    constructor() public {\n        _status = Status.Requesting;\n        _id = LoanUtil.generateId(_borrower, owner());\n        //_creationTime = now;\n    }\n\n    // Modifier functions\n    modifier onlyBorrowerOrOwner { \n        require(msg.sender == _borrower || msg.sender == owner(), \"Authorized for borrower or owner only.\"); \n        _; \n    }\n    \n    modifier onlyBorrower { \n        require(msg.sender == _borrower, \"Authorized for borrower only.\"); \n        _; \n    }\n\n    modifier canRefund { \n        require(_status == Status.Funding || _status == Status.Funded, \"Required Status: Funding or Funded\"); \n        _; \n    }\n\n    \n    // Public functions\n\n    /**\n     * @notice Setup the loan request with the borrower address and the loan amount\n     * @dev only the owner (or the loan broker in this case) can setup the borrowing info.\n     */\n    function request(address borrower, uint amount) public  {\n        require(borrower != address(0), \"Address is empty\");\n       // require(borrower != owner(), \"Owner can't be borrower at the same time.\");\n        require(amount > 0, \"0 is not a valid borrowing amount.\");\n        \n        _borrower = borrower;\n        _loanAmount = amount;\n        _status = Status.Funding;\n        emit Requesting(_id, _borrower, owner());\n    }\n    \n    /**\n     * @notice Deposit fund to the contract balance\n     * @dev Anyone other than the owner and borrower in this case.\n     */\n    function depositFund(uint IRate) public payable isFunding isNotStopped {\n        require(msg.value <= _loanAmount, \"Lending amount is more the amount requested.\");\n        require(msg.value <= _loanAmount - _ownedAmount, \"Lending amount is more than remaining fund needed.\");\n        require(_lenders[msg.sender].account == address(0), \"Existing lender.\");\n        require(msg.sender != owner(), \"Owner can't be a lender in the same contract.\");\n        require(msg.sender != _borrower, \"Borrower can't be a lender in the same contract.\");\n\n        _lenders[msg.sender] = Lender({account: msg.sender, lendingAmount: msg.value, repaidAmount: 0, refundedAmount: 0, interestRate: IRate});\n        _lenderAddr[_lenderCount] = msg.sender;\n        _lenderCount++;\n        _ownedAmount += msg.value;\n        emit Funding(_id, msg.sender, msg.value);\n\n        /// set the status to funded when the fund reach the requested amount.\n        if (balance() == _loanAmount) {\n            _status = Status.Funded;\n            _fullyFundedTime = now;\n        for(uint i = 0; i < _lenderCount; i++) {\n            Lender memory lender = _lenders[_lenderAddr[i]];\n            if (lender.account != address(0))\n            {\n                _ownedAmount +=lender.interestRate;\n            }\n        }\n            emit Funded(_id, _loanAmount);\n\n        }\n    }\n\n    /**\n     * @notice Return the deposit fund to lender\n     * @dev It can only refund when the borrower hasn't withdrawn the fund. Only owner (contract brodker) can\n     * execute the refund.\n     */\n   /*  function refundAfterDefaulted() public payable  isNotStopped onlyOwner {\n       // require(_ownedAmount == balance(), \"Balance is not enough to refund all lenders.\");\n\n         for(uint i = 0; i < _lenderCount; i++) {\n            Lender memory lender = _lenders[_lenderAddr[i]];\n            if (lender.account != address(0))\n            {\n                uint refundAmt = lender.lendingAmount;\n                lender.refundedAmount = refundAmt;\n                _lenders[_lenderAddr[i]] = lender;\n\n                address refundAddr = lender.account;\n                _ownedAmount -= refundAmt;\n\n                lender.account.transfer(refundAmt);\n                emit Refunded(_id, refundAddr, refundAmt);\n            }\n        }\n        _status = Status.Refunded;\n     }\n*/\n    function refund() public payable  isNotStopped onlyOwner {\n       // require(_ownedAmount == balance(), \"Balance is not enough to refund all lenders.\");\n\n        for(uint i = 0; i < _lenderCount; i++) {\n            Lender memory lender = _lenders[_lenderAddr[i]];\n            if (lender.account != address(0))\n            {\n                uint refundAmt = lender.lendingAmount;\n                lender.refundedAmount = refundAmt;\n                _lenders[_lenderAddr[i]] = lender;\n\n                address refundAddr = lender.account;\n                _ownedAmount -= refundAmt;\n\n                lender.account.transfer(refundAmt);\n                emit Refunded(_id, refundAddr, refundAmt);\n            }\n        }\n        _status = Status.Refunded;\n    }\n    \n    /**\n     * @notice Withdrawing the fund deposited by the lender to borrower account.\n     */\n    function withdrawToBorrower() public payable isFunded isNotStopped onlyBorrower {\n        require(balance() > 0, \"The balance is 0 currently.\");\n        _status = Status.FundWithdrawn;\n        msg.sender.transfer(balance());\n        _creationTime = now;\n        _dueDate = _creationTime + 1 days;\n        emit FundWithdrawn(_id, _ownedAmount);\n    }\n\n    /**\n     * @notice borrower repay the loan amount to the contract address\n     */\n    function repay() public payable isWithdrawn isNotStopped onlyBorrower {\n        require(msg.value == _ownedAmount, \"Repaid amount not the same as amount owned.\");\n        _ownedAmount -= msg.value;\n        _status = Status.Repaid;\n        _repaidTime = now;\n        emit Repaid(_id, msg.value);\n    }\n\n    /**\n     * @notice Widthdraw fund from contract balance back to lender according to the loan amount\n     */\n    function withdrawToLenders() public payable isRepaid isNotStopped onlyOwner {\n        //require(_loanAmount == balance(), \"Balance is not enough to refund all lenders.\");\n        for(uint i = 0; i < _lenderCount; i++) {\n            Lender memory lender = _lenders[_lenderAddr[i]];\n            if (lender.account != address(0))\n            {\n\n                lender.repaidAmount = lender.lendingAmount+lender.interestRate;\n                _lenders[_lenderAddr[i]] = lender;\n                lender.account.transfer(lender.repaidAmount);\n            }\n        }\n        _status = Status.Closed;\n        emit Closed(_id);\n    }\n    \n    /**\n     * @notice default the loan\n     */\n     \n    function toDefault() public isNotStopped onlyBorrowerOrOwner {\n        \n        _status = Status.Defaulted;\n    \n        emit Defaulted(_id, _borrower, _ownedAmount, _loanAmount);\n         \n    }\n    \n    /**\n     * @notice to cancel the loan\n     */\n    function cancel() public isNotStopped onlyBorrowerOrOwner {\n\n        require(_status == Status.Refunded || _ownedAmount == 0, \"Can't cancelled contract when fund is provided. Use refund function.\");\n        _status = Status.Cancelled;\n        emit Cancelled(_id);\n    }\n\n}",
  "sourcePath": "/home/devika/FinalYear/blockchain/BctProj/BctProj/contracts/SimpleLoan.sol",
  "compiler": {
    "name": "solc",
    "version": "0.5.16+commit.9c3226ce.Emscripten.clang"
  },
  "schemaVersion": "3.3.4",
  "updatedAt": "2021-12-26T07:47:05.081Z",
  "networkType": "ethereum",
  "devdoc": {
    "details": "The simple loan contract is to demonstrate basic deposit and withdrawal of ether between contracts and  wallets",
    "methods": {
      "balance()": {
        "details": "getter for contract's balance",
        "return": "current balance of the contract"
      },
      "borrower()": {
        "details": "getter for borrower",
        "return": "borrower address."
      },
      "constructor": {
        "details": "Default constructor to setup the initial simple loan contract"
      },
      "depositFund(uint256)": {
        "details": "Anyone other than the owner and borrower in this case."
      },
      "id()": {
        "details": "getter function for loan id",
        "return": "loan ID in string"
      },
      "info()": {
        "details": "a web helper function get loan properties in one function  instead of calling multiple getter function where the code is now readable.",
        "return": "tuple with loan property values."
      },
      "isOwner()": {
        "return": "true if `msg.sender` is the owner of the contract."
      },
      "lenderAddressAt(uint256)": {
        "details": "helper function to get lender address by index",
        "params": {
          "idx": "position index"
        },
        "return": "lender address"
      },
      "lenderAt(uint256)": {
        "details": "helper function to get lender from the mapping",
        "params": {
          "idx": "the index position in lender address mapping"
        },
        "return": "a lender info in tuples"
      },
      "lenderBy(address)": {
        "details": "helper function to get lender by its address",
        "params": {
          "addr": "lender address"
        },
        "return": "lender's address, lending amount, and repaid amount in tuples."
      },
      "lenderCount()": {
        "details": "getter for lender counter",
        "return": "number of lenders for this contract"
      },
      "loanAmount()": {
        "details": "getter for loan amount",
        "return": "the loan amount requested by the borrower"
      },
      "ownedAmount()": {
        "details": "getter for owned amount",
        "return": "the amount withdraw by the borrower"
      },
      "owner()": {
        "return": "the address of the owner."
      },
      "refund()": {
        "details": "It can only refund when the borrower hasn't withdrawn the fund. Only owner (contract brodker) can execute the refund."
      },
      "renounceOwnership()": {
        "details": "Allows the current owner to relinquish control of the contract."
      },
      "request(address,uint256)": {
        "details": "only the owner (or the loan broker in this case) can setup the borrowing info."
      },
      "resume()": {
        "details": "only only can execute this function"
      },
      "status()": {
        "details": "getter for status",
        "return": "current status according to the loan lifecycle"
      },
      "stop()": {
        "details": "only owner can execute this function."
      },
      "transferOwnership(address)": {
        "details": "Allows the current owner to transfer control of the contract to a newOwner.",
        "params": {
          "newOwner": "The address to transfer ownership to."
        }
      }
    },
    "title": "Simple loan contract"
  },
  "userdoc": {
    "methods": {
      "cancel()": {
        "notice": "to cancel the loan"
      },
      "depositFund(uint256)": {
        "notice": "Deposit fund to the contract balance"
      },
      "refund()": {
        "notice": "Return the deposit fund to lender"
      },
      "renounceOwnership()": {
        "notice": "Renouncing to ownership will leave the contract without an owner. It will not be possible to call the functions with the `onlyOwner` modifier anymore."
      },
      "repay()": {
        "notice": "borrower repay the loan amount to the contract address"
      },
      "request(address,uint256)": {
        "notice": "Setup the loan request with the borrower address and the loan amount"
      },
      "resume()": {
        "notice": "Take the contract out of suspend state."
      },
      "stop()": {
        "notice": "Put the contract in suspend state in the even or ermegency"
      },
      "toDefault()": {
        "notice": "default the loan"
      },
      "withdrawToBorrower()": {
        "notice": "Withdrawing the fund deposited by the lender to borrower account."
      },
      "withdrawToLenders()": {
        "notice": "Widthdraw fund from contract balance back to lender according to the loan amount"
      }
    },
    "notice": "Simple loan contract inherit from the Loan contract that allows a borrower request loan that can be funded by  several lenders. Lender will deposit ether to the contract account, once it matches the loan amount requested by the borrower, the borrower can withdraw the fund to its account. Once ready,  the borrower can repay the loan by deposit the money to the contract account. The lender can withdraw the  fund back from the contract to their wallets account."
  }
}