{
  "contractName": "TimeSecuredLoan",
  "abi": [
    {
      "anonymous": false,
      "inputs": [
        {
          "indexed": true,
          "internalType": "bytes32",
          "name": "loanId",
          "type": "bytes32"
        }
      ],
      "name": "Cancelled",
      "type": "event"
    },
    {
      "anonymous": false,
      "inputs": [
        {
          "indexed": true,
          "internalType": "bytes32",
          "name": "loanId",
          "type": "bytes32"
        }
      ],
      "name": "Closed",
      "type": "event"
    },
    {
      "anonymous": false,
      "inputs": [
        {
          "indexed": true,
          "internalType": "bytes32",
          "name": "loanId",
          "type": "bytes32"
        },
        {
          "indexed": true,
          "internalType": "address",
          "name": "borrower",
          "type": "address"
        },
        {
          "indexed": false,
          "internalType": "uint256",
          "name": "defaultedAmt",
          "type": "uint256"
        },
        {
          "indexed": false,
          "internalType": "uint256",
          "name": "loanAmt",
          "type": "uint256"
        }
      ],
      "name": "Defaulted",
      "type": "event"
    },
    {
      "anonymous": false,
      "inputs": [
        {
          "indexed": true,
          "internalType": "bytes32",
          "name": "loanId",
          "type": "bytes32"
        },
        {
          "indexed": false,
          "internalType": "uint256",
          "name": "amount",
          "type": "uint256"
        }
      ],
      "name": "FundWithdrawn",
      "type": "event"
    },
    {
      "anonymous": false,
      "inputs": [
        {
          "indexed": true,
          "internalType": "bytes32",
          "name": "loanId",
          "type": "bytes32"
        },
        {
          "indexed": false,
          "internalType": "uint256",
          "name": "amount",
          "type": "uint256"
        }
      ],
      "name": "Funded",
      "type": "event"
    },
    {
      "anonymous": false,
      "inputs": [
        {
          "indexed": true,
          "internalType": "bytes32",
          "name": "loanId",
          "type": "bytes32"
        },
        {
          "indexed": true,
          "internalType": "address",
          "name": "lender",
          "type": "address"
        },
        {
          "indexed": false,
          "internalType": "uint256",
          "name": "amount",
          "type": "uint256"
        }
      ],
      "name": "Funding",
      "type": "event"
    },
    {
      "anonymous": false,
      "inputs": [
        {
          "indexed": true,
          "internalType": "address",
          "name": "previousOwner",
          "type": "address"
        },
        {
          "indexed": true,
          "internalType": "address",
          "name": "newOwner",
          "type": "address"
        }
      ],
      "name": "OwnershipTransferred",
      "type": "event"
    },
    {
      "anonymous": false,
      "inputs": [
        {
          "indexed": true,
          "internalType": "bytes32",
          "name": "loanId",
          "type": "bytes32"
        },
        {
          "indexed": true,
          "internalType": "address",
          "name": "lender",
          "type": "address"
        },
        {
          "indexed": false,
          "internalType": "uint256",
          "name": "amount",
          "type": "uint256"
        }
      ],
      "name": "Refunded",
      "type": "event"
    },
    {
      "anonymous": false,
      "inputs": [
        {
          "indexed": true,
          "internalType": "bytes32",
          "name": "loanId",
          "type": "bytes32"
        },
        {
          "indexed": false,
          "internalType": "uint256",
          "name": "amount",
          "type": "uint256"
        }
      ],
      "name": "Repaid",
      "type": "event"
    },
    {
      "anonymous": false,
      "inputs": [
        {
          "indexed": true,
          "internalType": "bytes32",
          "name": "loanId",
          "type": "bytes32"
        },
        {
          "indexed": true,
          "internalType": "address",
          "name": "borrower",
          "type": "address"
        },
        {
          "indexed": false,
          "internalType": "address",
          "name": "owner",
          "type": "address"
        }
      ],
      "name": "Requesting",
      "type": "event"
    },
    {
      "anonymous": false,
      "inputs": [
        {
          "indexed": true,
          "internalType": "bytes32",
          "name": "loanId",
          "type": "bytes32"
        }
      ],
      "name": "Resumed",
      "type": "event"
    },
    {
      "anonymous": false,
      "inputs": [
        {
          "indexed": true,
          "internalType": "bytes32",
          "name": "loanId",
          "type": "bytes32"
        }
      ],
      "name": "Stopped",
      "type": "event"
    },
    {
      "constant": true,
      "inputs": [],
      "name": "balance",
      "outputs": [
        {
          "internalType": "uint256",
          "name": "",
          "type": "uint256"
        }
      ],
      "payable": false,
      "stateMutability": "view",
      "type": "function"
    },
    {
      "constant": true,
      "inputs": [],
      "name": "borrower",
      "outputs": [
        {
          "internalType": "address",
          "name": "",
          "type": "address"
        }
      ],
      "payable": false,
      "stateMutability": "view",
      "type": "function"
    },
    {
      "constant": true,
      "inputs": [],
      "name": "dueDate",
      "outputs": [
        {
          "internalType": "uint256",
          "name": "",
          "type": "uint256"
        }
      ],
      "payable": false,
      "stateMutability": "view",
      "type": "function"
    },
    {
      "constant": true,
      "inputs": [],
      "name": "id",
      "outputs": [
        {
          "internalType": "bytes32",
          "name": "",
          "type": "bytes32"
        }
      ],
      "payable": false,
      "stateMutability": "view",
      "type": "function"
    },
    {
      "constant": true,
      "inputs": [],
      "name": "info",
      "outputs": [
        {
          "internalType": "bytes32",
          "name": "p_id",
          "type": "bytes32"
        },
        {
          "internalType": "enum Loan.Status",
          "name": "p_status",
          "type": "uint8"
        },
        {
          "internalType": "uint256",
          "name": "p_balance",
          "type": "uint256"
        },
        {
          "internalType": "uint256",
          "name": "p_loanAmount",
          "type": "uint256"
        },
        {
          "internalType": "uint256",
          "name": "p_ownedAmount",
          "type": "uint256"
        },
        {
          "internalType": "address",
          "name": "p_borrower",
          "type": "address"
        },
        {
          "internalType": "address",
          "name": "p_owner",
          "type": "address"
        },
        {
          "internalType": "uint256",
          "name": "p_lenderCount",
          "type": "uint256"
        },
        {
          "internalType": "uint256",
          "name": "p_dueDate",
          "type": "uint256"
        },
        {
          "internalType": "uint256",
          "name": "p_now",
          "type": "uint256"
        }
      ],
      "payable": false,
      "stateMutability": "view",
      "type": "function"
    },
    {
      "constant": true,
      "inputs": [],
      "name": "isOwner",
      "outputs": [
        {
          "internalType": "bool",
          "name": "",
          "type": "bool"
        }
      ],
      "payable": false,
      "stateMutability": "view",
      "type": "function"
    },
    {
      "constant": true,
      "inputs": [
        {
          "internalType": "uint256",
          "name": "idx",
          "type": "uint256"
        }
      ],
      "name": "lenderAddressAt",
      "outputs": [
        {
          "internalType": "address",
          "name": "",
          "type": "address"
        }
      ],
      "payable": false,
      "stateMutability": "view",
      "type": "function"
    },
    {
      "constant": true,
      "inputs": [
        {
          "internalType": "uint256",
          "name": "idx",
          "type": "uint256"
        }
      ],
      "name": "lenderAt",
      "outputs": [
        {
          "internalType": "address",
          "name": "p_lender",
          "type": "address"
        },
        {
          "internalType": "uint256",
          "name": "p_lendingAmount",
          "type": "uint256"
        },
        {
          "internalType": "uint256",
          "name": "p_repaidAmount",
          "type": "uint256"
        },
        {
          "internalType": "uint256",
          "name": "p_refundedAmount",
          "type": "uint256"
        },
        {
          "internalType": "uint256",
          "name": "p_interestRate",
          "type": "uint256"
        }
      ],
      "payable": false,
      "stateMutability": "view",
      "type": "function"
    },
    {
      "constant": true,
      "inputs": [
        {
          "internalType": "address",
          "name": "addr",
          "type": "address"
        }
      ],
      "name": "lenderBy",
      "outputs": [
        {
          "internalType": "address",
          "name": "p_lender",
          "type": "address"
        },
        {
          "internalType": "uint256",
          "name": "p_lendingAmount",
          "type": "uint256"
        },
        {
          "internalType": "uint256",
          "name": "p_repaidAmount",
          "type": "uint256"
        },
        {
          "internalType": "uint256",
          "name": "p_refundedAmount",
          "type": "uint256"
        },
        {
          "internalType": "uint256",
          "name": "p_interestRate",
          "type": "uint256"
        }
      ],
      "payable": false,
      "stateMutability": "view",
      "type": "function"
    },
    {
      "constant": true,
      "inputs": [],
      "name": "lenderCount",
      "outputs": [
        {
          "internalType": "uint256",
          "name": "",
          "type": "uint256"
        }
      ],
      "payable": false,
      "stateMutability": "view",
      "type": "function"
    },
    {
      "constant": true,
      "inputs": [],
      "name": "loanAmount",
      "outputs": [
        {
          "internalType": "uint256",
          "name": "",
          "type": "uint256"
        }
      ],
      "payable": false,
      "stateMutability": "view",
      "type": "function"
    },
    {
      "constant": true,
      "inputs": [],
      "name": "noww",
      "outputs": [
        {
          "internalType": "uint256",
          "name": "",
          "type": "uint256"
        }
      ],
      "payable": false,
      "stateMutability": "view",
      "type": "function"
    },
    {
      "constant": true,
      "inputs": [],
      "name": "ownedAmount",
      "outputs": [
        {
          "internalType": "uint256",
          "name": "",
          "type": "uint256"
        }
      ],
      "payable": false,
      "stateMutability": "view",
      "type": "function"
    },
    {
      "constant": true,
      "inputs": [],
      "name": "owner",
      "outputs": [
        {
          "internalType": "address",
          "name": "",
          "type": "address"
        }
      ],
      "payable": false,
      "stateMutability": "view",
      "type": "function"
    },
    {
      "constant": false,
      "inputs": [],
      "name": "renounceOwnership",
      "outputs": [],
      "payable": false,
      "stateMutability": "nonpayable",
      "type": "function"
    },
    {
      "constant": false,
      "inputs": [],
      "name": "resume",
      "outputs": [],
      "payable": false,
      "stateMutability": "nonpayable",
      "type": "function"
    },
    {
      "constant": true,
      "inputs": [],
      "name": "status",
      "outputs": [
        {
          "internalType": "enum Loan.Status",
          "name": "",
          "type": "uint8"
        }
      ],
      "payable": false,
      "stateMutability": "view",
      "type": "function"
    },
    {
      "constant": false,
      "inputs": [],
      "name": "stop",
      "outputs": [],
      "payable": false,
      "stateMutability": "nonpayable",
      "type": "function"
    },
    {
      "constant": false,
      "inputs": [
        {
          "internalType": "address",
          "name": "newOwner",
          "type": "address"
        }
      ],
      "name": "transferOwnership",
      "outputs": [],
      "payable": false,
      "stateMutability": "nonpayable",
      "type": "function"
    },
    {
      "constant": false,
      "inputs": [
        {
          "internalType": "address",
          "name": "borrower",
          "type": "address"
        },
        {
          "internalType": "uint256",
          "name": "amount",
          "type": "uint256"
        }
      ],
      "name": "request",
      "outputs": [],
      "payable": false,
      "stateMutability": "nonpayable",
      "type": "function"
    },
    {
      "constant": false,
      "inputs": [
        {
          "internalType": "uint256",
          "name": "IRate",
          "type": "uint256"
        }
      ],
      "name": "depositFund",
      "outputs": [],
      "payable": true,
      "stateMutability": "payable",
      "type": "function"
    },
    {
      "constant": false,
      "inputs": [],
      "name": "refund",
      "outputs": [],
      "payable": true,
      "stateMutability": "payable",
      "type": "function"
    },
    {
      "constant": false,
      "inputs": [],
      "name": "withdrawToBorrower",
      "outputs": [],
      "payable": true,
      "stateMutability": "payable",
      "type": "function"
    },
    {
      "constant": false,
      "inputs": [],
      "name": "repay",
      "outputs": [],
      "payable": true,
      "stateMutability": "payable",
      "type": "function"
    },
    {
      "constant": false,
      "inputs": [],
      "name": "withdrawToLenders",
      "outputs": [],
      "payable": true,
      "stateMutability": "payable",
      "type": "function"
    },
    {
      "constant": false,
      "inputs": [],
      "name": "toDefault",
      "outputs": [],
      "payable": false,
      "stateMutability": "nonpayable",
      "type": "function"
    },
    {
      "constant": false,
      "inputs": [],
      "name": "cancel",
      "outputs": [],
      "payable": false,
      "stateMutability": "nonpayable",
      "type": "function"
    }
  ],
  "bytecode": "0x6080604052336000806101000a81548173ffffffffffffffffffffffffffffffffffffffff021916908373ffffffffffffffffffffffffffffffffffffffff1602179055506000809054906101000a900473ffffffffffffffffffffffffffffffffffffffff1673ffffffffffffffffffffffffffffffffffffffff16600073ffffffffffffffffffffffffffffffffffffffff167f8be0079c531659141344cd1fd0a4f28419497f9722a3daafe3b4186f6b6457e060405160405180910390a36000600c60006101000a81548160ff02191690836008811115620000e057fe5b02179055506200012d600260009054906101000a900473ffffffffffffffffffffffffffffffffffffffff166200011c6200013960201b60201c565b6200016260201b62002dff1760201c565b600181905550620001a5565b60008060009054906101000a900473ffffffffffffffffffffffffffffffffffffffff16905090565b600080428373ffffffffffffffffffffffffffffffffffffffff168573ffffffffffffffffffffffffffffffffffffffff16030190508060001b91505092915050565b6130b980620001b56000396000f3fe60806040526004361061019c5760003560e01c80637df1f1b9116100ec578063c8c01a551161008a578063ea8a1af011610064578063ea8a1af01461075f578063f2fde38b14610776578063fa0b0aaa146107c7578063ff1024f1146107de5761019c565b8063c8c01a55146106cf578063d2227acf1461072a578063d38da171146107555761019c565b80638f32d59b116100c65780638f32d59b1461061f5780639d585f7f1461064e578063af640d0f14610679578063b69ef8a8146106a45761019c565b80637df1f1b9146104da57806389946311146105315780638da5cb5b146105c85761019c565b8063402d888311610159578063590e1ae311610133578063590e1ae3146103e1578063715018a6146103eb578063751d115614610402578063786716fe146104af5761019c565b8063402d88831461037e57806343ba0cb114610388578063585e5d20146103b35761019c565b8063046f7da2146101a157806307da68f5146101b857806307e54798146101cf57806310919b4f146101fa578063200d2ed214610275578063370158ea146102ae575b600080fd5b3480156101ad57600080fd5b506101b66107e8565b005b3480156101c457600080fd5b506101cd6108ae565b005b3480156101db57600080fd5b506101e4610974565b6040518082815260200191505060405180910390f35b34801561020657600080fd5b506102336004803603602081101561021d57600080fd5b810190808035906020019092919050505061097e565b604051808273ffffffffffffffffffffffffffffffffffffffff1673ffffffffffffffffffffffffffffffffffffffff16815260200191505060405180910390f35b34801561028157600080fd5b5061028a6109bb565b6040518082600881111561029a57fe5b60ff16815260200191505060405180910390f35b3480156102ba57600080fd5b506102c36109d2565b604051808b81526020018a60088111156102d957fe5b60ff1681526020018981526020018881526020018781526020018673ffffffffffffffffffffffffffffffffffffffff1673ffffffffffffffffffffffffffffffffffffffff1681526020018573ffffffffffffffffffffffffffffffffffffffff1673ffffffffffffffffffffffffffffffffffffffff1681526020018481526020018381526020018281526020019a505050505050505050505060405180910390f35b610386610a51565b005b34801561039457600080fd5b5061039d610a5b565b6040518082815260200191505060405180910390f35b6103df600480360360208110156103c957600080fd5b8101908080359060200190929190505050610a63565b005b6103e9610a6f565b005b3480156103f757600080fd5b50610400610a79565b005b34801561040e57600080fd5b506104516004803603602081101561042557600080fd5b81019080803573ffffffffffffffffffffffffffffffffffffffff169060200190929190505050610bb2565b604051808673ffffffffffffffffffffffffffffffffffffffff1673ffffffffffffffffffffffffffffffffffffffff1681526020018581526020018481526020018381526020018281526020019550505050505060405180910390f35b3480156104bb57600080fd5b506104c4610d17565b6040518082815260200191505060405180910390f35b3480156104e657600080fd5b506104ef610d21565b604051808273ffffffffffffffffffffffffffffffffffffffff1673ffffffffffffffffffffffffffffffffffffffff16815260200191505060405180910390f35b34801561053d57600080fd5b5061056a6004803603602081101561055457600080fd5b8101908080359060200190929190505050610d4b565b604051808673ffffffffffffffffffffffffffffffffffffffff1673ffffffffffffffffffffffffffffffffffffffff1681526020018581526020018481526020018381526020018281526020019550505050505060405180910390f35b3480156105d457600080fd5b506105dd610d77565b604051808273ffffffffffffffffffffffffffffffffffffffff1673ffffffffffffffffffffffffffffffffffffffff16815260200191505060405180910390f35b34801561062b57600080fd5b50610634610da0565b604051808215151515815260200191505060405180910390f35b34801561065a57600080fd5b50610663610df7565b6040518082815260200191505060405180910390f35b34801561068557600080fd5b5061068e610e01565b6040518082815260200191505060405180910390f35b3480156106b057600080fd5b506106b9610e0b565b6040518082815260200191505060405180910390f35b3480156106db57600080fd5b50610728600480360360408110156106f257600080fd5b81019080803573ffffffffffffffffffffffffffffffffffffffff16906020019092919080359060200190929190505050610e13565b005b34801561073657600080fd5b5061073f610e21565b6040518082815260200191505060405180910390f35b61075d610e2b565b005b34801561076b57600080fd5b50610774610e9a565b005b34801561078257600080fd5b506107c56004803603602081101561079957600080fd5b81019080803573ffffffffffffffffffffffffffffffffffffffff169060200190929190505050610ea4565b005b3480156107d357600080fd5b506107dc610f2a565b005b6107e6610f99565b005b6107f0610da0565b610862576040517f08c379a00000000000000000000000000000000000000000000000000000000081526004018080602001828103825260198152602001807f417574686f72697a656420666f72206f776e6572206f6e6c790000000000000081525060200191505060405180910390fd5b6000600c60016101000a81548160ff0219169083151502179055506001547f0f32c8acd3779bbdc4f25017f9d48e6a5d2a6741de679a4059bf2fff7456213c60405160405180910390a2565b6108b6610da0565b610928576040517f08c379a00000000000000000000000000000000000000000000000000000000081526004018080602001828103825260198152602001807f417574686f72697a656420666f72206f776e6572206f6e6c790000000000000081525060200191505060405180910390fd5b6001600c60016101000a81548160ff0219169083151502179055506001547f1d19fd95a8301a83d3e02da59d47316f37bb99675c57158849e48e8b6d5cd1ba60405160405180910390a2565b6000600454905090565b6000600e600083815260200190815260200160002060009054906101000a900473ffffffffffffffffffffffffffffffffffffffff169050919050565b6000600c60009054906101000a900460ff16905090565b6000806000806000806000806000806109e9610e01565b99506109f36109bb565b98506109fd610e0b565b9750610a07610df7565b9650610a11610974565b9550610a1b610d21565b9450610a25610d77565b9350610a2f610e21565b9250610a39610d17565b9150610a43610a5b565b905090919293949596979899565b610a596110a3565b565b600042905090565b610a6c8161133f565b50565b610a77611adc565b565b610a81610da0565b610af3576040517f08c379a00000000000000000000000000000000000000000000000000000000081526004018080602001828103825260198152602001807f417574686f72697a656420666f72206f776e6572206f6e6c790000000000000081525060200191505060405180910390fd5b600073ffffffffffffffffffffffffffffffffffffffff166000809054906101000a900473ffffffffffffffffffffffffffffffffffffffff1673ffffffffffffffffffffffffffffffffffffffff167f8be0079c531659141344cd1fd0a4f28419497f9722a3daafe3b4186f6b6457e060405160405180910390a360008060006101000a81548173ffffffffffffffffffffffffffffffffffffffff021916908373ffffffffffffffffffffffffffffffffffffffff160217905550565b60008060008060008073ffffffffffffffffffffffffffffffffffffffff168673ffffffffffffffffffffffffffffffffffffffff161415610c1457600080600080600084945083935082925081915080905094509450945094509450610d0e565b610c1c612dba565b600d60008873ffffffffffffffffffffffffffffffffffffffff1673ffffffffffffffffffffffffffffffffffffffff1681526020019081526020016000206040518060a00160405290816000820160009054906101000a900473ffffffffffffffffffffffffffffffffffffffff1673ffffffffffffffffffffffffffffffffffffffff1673ffffffffffffffffffffffffffffffffffffffff16815260200160018201548152602001600282015481526020016003820154815260200160048201548152505090508060000151816020015182604001518360600151846080015184945095509550955095509550505b91939590929450565b6000600854905090565b6000600260009054906101000a900473ffffffffffffffffffffffffffffffffffffffff16905090565b6000806000806000610d64610d5f8761097e565b610bb2565b9450945094509450945091939590929450565b60008060009054906101000a900473ffffffffffffffffffffffffffffffffffffffff16905090565b60008060009054906101000a900473ffffffffffffffffffffffffffffffffffffffff1673ffffffffffffffffffffffffffffffffffffffff163373ffffffffffffffffffffffffffffffffffffffff1614905090565b6000600354905090565b6000600154905090565b600047905090565b610e1d8282611ef5565b5050565b6000600554905090565b610e3b6201518060075401612107565b610e90576040517f08c379a000000000000000000000000000000000000000000000000000000000815260040180806020018281038252602b815260200180612e43602b913960400191505060405180910390fd5b610e98612114565b565b610ea2612421565b565b610eac610da0565b610f1e576040517f08c379a00000000000000000000000000000000000000000000000000000000081526004018080602001828103825260198152602001807f417574686f72697a656420666f72206f776e6572206f6e6c790000000000000081525060200191505060405180910390fd5b610f2781612651565b50565b610f3a6206978060065401612107565b610f8f576040517f08c379a000000000000000000000000000000000000000000000000000000000815260040180806020018281038252602d815260200180613058602d913960400191505060405180910390fd5b610f97612749565b565b60046008811115610fa657fe5b600c60009054906101000a900460ff166008811115610fc157fe5b14611034576040517f08c379a000000000000000000000000000000000000000000000000000000000815260040180806020018281038252601a8152602001807f5374617475732073686f756c6420626520696e2052657061696400000000000081525060200191505060405180910390fd5b6110446202a30060095401612107565b611099576040517f08c379a0000000000000000000000000000000000000000000000000000000008152600401808060200182810382526024815260200180612eed6024913960400191505060405180910390fd5b6110a161293e565b565b600360088111156110b057fe5b600c60009054906101000a900460ff1660088111156110cb57fe5b1461113e576040517f08c379a00000000000000000000000000000000000000000000000000000000081526004018080602001828103825260198152602001807f5265717569726564205374617475733a2057697468647261770000000000000081525060200191505060405180910390fd5b60011515600c60019054906101000a900460ff16151514156111ab576040517f08c379a0000000000000000000000000000000000000000000000000000000008152600401808060200182810382526054815260200180612f6e6054913960600191505060405180910390fd5b600260009054906101000a900473ffffffffffffffffffffffffffffffffffffffff1673ffffffffffffffffffffffffffffffffffffffff163373ffffffffffffffffffffffffffffffffffffffff161461126e576040517f08c379a000000000000000000000000000000000000000000000000000000000815260040180806020018281038252601d8152602001807f417574686f72697a656420666f7220626f72726f776572206f6e6c792e00000081525060200191505060405180910390fd5b60045434146112c8576040517f08c379a000000000000000000000000000000000000000000000000000000000815260040180806020018281038252602b815260200180612f43602b913960400191505060405180910390fd5b346004600082825403925050819055506004600c60006101000a81548160ff021916908360088111156112f757fe5b0217905550426009819055506001547f7386151a988d74496e6fc96f665998a762fa92fc6693880496a4d6785b2fdd23346040518082815260200191505060405180910390a2565b6001600881111561134c57fe5b600c60009054906101000a900460ff16600881111561136757fe5b146113da576040517f08c379a00000000000000000000000000000000000000000000000000000000081526004018080602001828103825260188152602001807f5265717569726564205374617475733a2046756e64696e67000000000000000081525060200191505060405180910390fd5b60011515600c60019054906101000a900460ff1615151415611447576040517f08c379a0000000000000000000000000000000000000000000000000000000008152600401808060200182810382526054815260200180612f6e6054913960600191505060405180910390fd5b6003543411156114a2576040517f08c379a000000000000000000000000000000000000000000000000000000000815260040180806020018281038252602c81526020018061302c602c913960400191505060405180910390fd5b60045460035403341115611501576040517f08c379a0000000000000000000000000000000000000000000000000000000008152600401808060200182810382526032815260200180612f116032913960400191505060405180910390fd5b600073ffffffffffffffffffffffffffffffffffffffff16600d60003373ffffffffffffffffffffffffffffffffffffffff1673ffffffffffffffffffffffffffffffffffffffff16815260200190815260200160002060000160009054906101000a900473ffffffffffffffffffffffffffffffffffffffff1673ffffffffffffffffffffffffffffffffffffffff1614611605576040517f08c379a00000000000000000000000000000000000000000000000000000000081526004018080602001828103825260108152602001807f4578697374696e67206c656e6465722e0000000000000000000000000000000081525060200191505060405180910390fd5b61160d610d77565b73ffffffffffffffffffffffffffffffffffffffff163373ffffffffffffffffffffffffffffffffffffffff161415611691576040517f08c379a000000000000000000000000000000000000000000000000000000000815260040180806020018281038252602d815260200180612e6e602d913960400191505060405180910390fd5b600260009054906101000a900473ffffffffffffffffffffffffffffffffffffffff1673ffffffffffffffffffffffffffffffffffffffff163373ffffffffffffffffffffffffffffffffffffffff161415611738576040517f08c379a0000000000000000000000000000000000000000000000000000000008152600401808060200182810382526030815260200180612e9b6030913960400191505060405180910390fd5b6040518060a001604052803373ffffffffffffffffffffffffffffffffffffffff168152602001348152602001600081526020016000815260200182815250600d60003373ffffffffffffffffffffffffffffffffffffffff1673ffffffffffffffffffffffffffffffffffffffff16815260200190815260200160002060008201518160000160006101000a81548173ffffffffffffffffffffffffffffffffffffffff021916908373ffffffffffffffffffffffffffffffffffffffff1602179055506020820151816001015560408201518160020155606082015181600301556080820151816004015590505033600e6000600554815260200190815260200160002060006101000a81548173ffffffffffffffffffffffffffffffffffffffff021916908373ffffffffffffffffffffffffffffffffffffffff160217905550600560008154809291906001019190505550346004600082825401925050819055503373ffffffffffffffffffffffffffffffffffffffff166001547f567ee2fe3df8d4438b27a9f7d5fe1b33f94acd2c68f6a23dde69751fde18e12a346040518082815260200191505060405180910390a36003546118fa610e0b565b1415611ad9576002600c60006101000a81548160ff0219169083600881111561191f57fe5b02179055504260078190555060008090505b600554811015611a9b57611943612dba565b600d6000600e600085815260200190815260200160002060009054906101000a900473ffffffffffffffffffffffffffffffffffffffff1673ffffffffffffffffffffffffffffffffffffffff1673ffffffffffffffffffffffffffffffffffffffff1681526020019081526020016000206040518060a00160405290816000820160009054906101000a900473ffffffffffffffffffffffffffffffffffffffff1673ffffffffffffffffffffffffffffffffffffffff1673ffffffffffffffffffffffffffffffffffffffff1681526020016001820154815260200160028201548152602001600382015481526020016004820154815250509050600073ffffffffffffffffffffffffffffffffffffffff16816000015173ffffffffffffffffffffffffffffffffffffffff1614611a8d5780608001516004600082825401925050819055505b508080600101915050611931565b506001547f9f4592c3bd42bd33860ee93dc92d07f06e3f4fb6e19a9ca214982fe7c1bdb0376003546040518082815260200191505060405180910390a25b50565b60011515600c60019054906101000a900460ff1615151415611b49576040517f08c379a0000000000000000000000000000000000000000000000000000000008152600401808060200182810382526054815260200180612f6e6054913960600191505060405180910390fd5b611b51610da0565b611bc3576040517f08c379a00000000000000000000000000000000000000000000000000000000081526004018080602001828103825260198152602001807f417574686f72697a656420666f72206f776e6572206f6e6c790000000000000081525060200191505060405180910390fd5b60008090505b600554811015611ece57611bdb612dba565b600d6000600e600085815260200190815260200160002060009054906101000a900473ffffffffffffffffffffffffffffffffffffffff1673ffffffffffffffffffffffffffffffffffffffff1673ffffffffffffffffffffffffffffffffffffffff1681526020019081526020016000206040518060a00160405290816000820160009054906101000a900473ffffffffffffffffffffffffffffffffffffffff1673ffffffffffffffffffffffffffffffffffffffff1673ffffffffffffffffffffffffffffffffffffffff1681526020016001820154815260200160028201548152602001600382015481526020016004820154815250509050600073ffffffffffffffffffffffffffffffffffffffff16816000015173ffffffffffffffffffffffffffffffffffffffff1614611ec0576000816020015190508082606001818152505081600d6000600e600087815260200190815260200160002060009054906101000a900473ffffffffffffffffffffffffffffffffffffffff1673ffffffffffffffffffffffffffffffffffffffff1673ffffffffffffffffffffffffffffffffffffffff16815260200190815260200160002060008201518160000160006101000a81548173ffffffffffffffffffffffffffffffffffffffff021916908373ffffffffffffffffffffffffffffffffffffffff1602179055506020820151816001015560408201518160020155606082015181600301556080820151816004015590505060008260000151905081600460008282540392505081905550826000015173ffffffffffffffffffffffffffffffffffffffff166108fc839081150290604051600060405180830381858888f19350505050158015611e6b573d6000803e3d6000fd5b508073ffffffffffffffffffffffffffffffffffffffff166001547ff552ca82e113ac3c539c3d617f29fcd19c172a0c75dad017555c9e109f7fe183846040518082815260200191505060405180910390a350505b508080600101915050611bc9565b506006600c60006101000a81548160ff02191690836008811115611eee57fe5b0217905550565b600073ffffffffffffffffffffffffffffffffffffffff168273ffffffffffffffffffffffffffffffffffffffff161415611f98576040517f08c379a00000000000000000000000000000000000000000000000000000000081526004018080602001828103825260108152602001807f4164647265737320697320656d7074790000000000000000000000000000000081525060200191505060405180910390fd5b60008111611ff1576040517f08c379a0000000000000000000000000000000000000000000000000000000008152600401808060200182810382526022815260200180612ecb6022913960400191505060405180910390fd5b81600260006101000a81548173ffffffffffffffffffffffffffffffffffffffff021916908373ffffffffffffffffffffffffffffffffffffffff160217905550806003819055506001600c60006101000a81548160ff0219169083600881111561205857fe5b0217905550600260009054906101000a900473ffffffffffffffffffffffffffffffffffffffff1673ffffffffffffffffffffffffffffffffffffffff166001547f432cddca824392e0d67c28ed9c59e94789e1ecd6e170847a54ba420468b097f36120c2610d77565b604051808273ffffffffffffffffffffffffffffffffffffffff1673ffffffffffffffffffffffffffffffffffffffff16815260200191505060405180910390a35050565b6000814210159050919050565b6002600881111561212157fe5b600c60009054906101000a900460ff16600881111561213c57fe5b146121af576040517f08c379a00000000000000000000000000000000000000000000000000000000081526004018080602001828103825260178152602001807f5265717569726564205374617475733a2046756e64656400000000000000000081525060200191505060405180910390fd5b60011515600c60019054906101000a900460ff161515141561221c576040517f08c379a0000000000000000000000000000000000000000000000000000000008152600401808060200182810382526054815260200180612f6e6054913960600191505060405180910390fd5b600260009054906101000a900473ffffffffffffffffffffffffffffffffffffffff1673ffffffffffffffffffffffffffffffffffffffff163373ffffffffffffffffffffffffffffffffffffffff16146122df576040517f08c379a000000000000000000000000000000000000000000000000000000000815260040180806020018281038252601d8152602001807f417574686f72697a656420666f7220626f72726f776572206f6e6c792e00000081525060200191505060405180910390fd5b60006122e9610e0b565b1161235c576040517f08c379a000000000000000000000000000000000000000000000000000000000815260040180806020018281038252601b8152602001807f5468652062616c616e636520697320302063757272656e746c792e000000000081525060200191505060405180910390fd5b6003600c60006101000a81548160ff0219169083600881111561237b57fe5b02179055503373ffffffffffffffffffffffffffffffffffffffff166108fc6123a2610e0b565b9081150290604051600060405180830381858888f193505050501580156123cd573d6000803e3d6000fd5b504260068190555062015180600654016008819055506001547fa3b20715ecbfc0df1fd9080734769d9acd91e86de1cbd3625392170cdcfd6f146004546040518082815260200191505060405180910390a2565b60011515600c60019054906101000a900460ff161515141561248e576040517f08c379a0000000000000000000000000000000000000000000000000000000008152600401808060200182810382526054815260200180612f6e6054913960600191505060405180910390fd5b600260009054906101000a900473ffffffffffffffffffffffffffffffffffffffff1673ffffffffffffffffffffffffffffffffffffffff163373ffffffffffffffffffffffffffffffffffffffff16148061251c57506124ed610d77565b73ffffffffffffffffffffffffffffffffffffffff163373ffffffffffffffffffffffffffffffffffffffff16145b612571576040517f08c379a00000000000000000000000000000000000000000000000000000000081526004018080602001828103825260268152602001806130066026913960400191505060405180910390fd5b6006600881111561257e57fe5b600c60009054906101000a900460ff16600881111561259957fe5b14806125a757506000600454145b6125fc576040517f08c379a0000000000000000000000000000000000000000000000000000000008152600401808060200182810382526044815260200180612fc26044913960600191505060405180910390fd5b6007600c60006101000a81548160ff0219169083600881111561261b57fe5b02179055506001547fbaa1eb22f2a492ba1a5fea61b8df4d27c6c8b5f3971e63bb58fa14ff72eedb7060405160405180910390a2565b600073ffffffffffffffffffffffffffffffffffffffff168173ffffffffffffffffffffffffffffffffffffffff16141561268b57600080fd5b8073ffffffffffffffffffffffffffffffffffffffff166000809054906101000a900473ffffffffffffffffffffffffffffffffffffffff1673ffffffffffffffffffffffffffffffffffffffff167f8be0079c531659141344cd1fd0a4f28419497f9722a3daafe3b4186f6b6457e060405160405180910390a3806000806101000a81548173ffffffffffffffffffffffffffffffffffffffff021916908373ffffffffffffffffffffffffffffffffffffffff16021790555050565b60011515600c60019054906101000a900460ff16151514156127b6576040517f08c379a0000000000000000000000000000000000000000000000000000000008152600401808060200182810382526054815260200180612f6e6054913960600191505060405180910390fd5b600260009054906101000a900473ffffffffffffffffffffffffffffffffffffffff1673ffffffffffffffffffffffffffffffffffffffff163373ffffffffffffffffffffffffffffffffffffffff1614806128445750612815610d77565b73ffffffffffffffffffffffffffffffffffffffff163373ffffffffffffffffffffffffffffffffffffffff16145b612899576040517f08c379a00000000000000000000000000000000000000000000000000000000081526004018080602001828103825260268152602001806130066026913960400191505060405180910390fd5b6005600c60006101000a81548160ff021916908360088111156128b857fe5b0217905550600260009054906101000a900473ffffffffffffffffffffffffffffffffffffffff1673ffffffffffffffffffffffffffffffffffffffff166001547f21382a74b434572c04970aea2623b00513ab62f964d9f8bca396d9e28a2c9f32600454600354604051808381526020018281526020019250505060405180910390a3565b6004600881111561294b57fe5b600c60009054906101000a900460ff16600881111561296657fe5b146129d9576040517f08c379a00000000000000000000000000000000000000000000000000000000081526004018080602001828103825260178152602001807f5265717569726564205374617475733a2052657061696400000000000000000081525060200191505060405180910390fd5b60011515600c60019054906101000a900460ff1615151415612a46576040517f08c379a0000000000000000000000000000000000000000000000000000000008152600401808060200182810382526054815260200180612f6e6054913960600191505060405180910390fd5b612a4e610da0565b612ac0576040517f08c379a00000000000000000000000000000000000000000000000000000000081526004018080602001828103825260198152602001807f417574686f72697a656420666f72206f776e6572206f6e6c790000000000000081525060200191505060405180910390fd5b60008090505b600554811015612d6457612ad8612dba565b600d6000600e600085815260200190815260200160002060009054906101000a900473ffffffffffffffffffffffffffffffffffffffff1673ffffffffffffffffffffffffffffffffffffffff1673ffffffffffffffffffffffffffffffffffffffff1681526020019081526020016000206040518060a00160405290816000820160009054906101000a900473ffffffffffffffffffffffffffffffffffffffff1673ffffffffffffffffffffffffffffffffffffffff1673ffffffffffffffffffffffffffffffffffffffff1681526020016001820154815260200160028201548152602001600382015481526020016004820154815250509050600073ffffffffffffffffffffffffffffffffffffffff16816000015173ffffffffffffffffffffffffffffffffffffffff1614612d5657806080015181602001510181604001818152505080600d6000600e600086815260200190815260200160002060009054906101000a900473ffffffffffffffffffffffffffffffffffffffff1673ffffffffffffffffffffffffffffffffffffffff1673ffffffffffffffffffffffffffffffffffffffff16815260200190815260200160002060008201518160000160006101000a81548173ffffffffffffffffffffffffffffffffffffffff021916908373ffffffffffffffffffffffffffffffffffffffff16021790555060208201518160010155604082015181600201556060820151816003015560808201518160040155905050806000015173ffffffffffffffffffffffffffffffffffffffff166108fc82604001519081150290604051600060405180830381858888f19350505050158015612d54573d6000803e3d6000fd5b505b508080600101915050612ac6565b506008600c60006101000a81548160ff02191690836008811115612d8457fe5b02179055506001547f7b6ac8bce3193cb9464e9070476bf8926e449f5f743f8c7578eea15265467d7960405160405180910390a2565b6040518060a00160405280600073ffffffffffffffffffffffffffffffffffffffff168152602001600081526020016000815260200160008152602001600081525090565b600080428373ffffffffffffffffffffffffffffffffffffffff168573ffffffffffffffffffffffffffffffffffffffff16030190508060001b9150509291505056fe417574686f72697a6564206f6e6c79206166746572203120646179206f662066756c6c792066756e6465644f776e65722063616e27742062652061206c656e64657220696e207468652073616d6520636f6e74726163742e426f72726f7765722063616e27742062652061206c656e64657220696e207468652073616d6520636f6e74726163742e30206973206e6f7420612076616c696420626f72726f77696e6720616d6f756e742e417574686f72697a6564206f6e6c79206166746572203220646179206f662072657061794c656e64696e6720616d6f756e74206973206d6f7265207468616e2072656d61696e696e672066756e64206e65656465642e52657061696420616d6f756e74206e6f74207468652073616d6520617320616d6f756e74206f776e65642e546865207374617465206f662074686520636f6e74726163742069732073746f7070656420627920746865206f776e65722c206e6f206f7065726174696f6e7320616c6c6f7720617420746869732074696d652e43616e27742063616e63656c6c656420636f6e7472616374207768656e2066756e642069732070726f76696465642e2055736520726566756e642066756e6374696f6e2e417574686f72697a656420666f7220626f72726f776572206f72206f776e6572206f6e6c792e4c656e64696e6720616d6f756e74206973206d6f72652074686520616d6f756e74207265717565737465642e417574686f72697a6564206f6e6c7920616674657220636f6e7472616374206372656174656420352064617973a265627a7a723158208b5ebd60594ce7d4129fc28a3f875ccd7131b6a5e05ea8cbbd0e0884e178f44864736f6c63430005100032",
  "source": "pragma solidity >=0.5.0;\n\nimport \"./SimpleLoan.sol\";\n\n/**\n * @title Time Secured Simple Loan\n * @notice Time secured loan inherit simple loan but with time protected modifier on the withdrawToBorrower\n * and withdrawToLenders so the fund can't transfer out from the contract account until the waiting period reached.\n * @dev This contract is created out of demonstrate one of the security best practices of writing solidty contract \n * and also a different test cases is written specifically for it.\n */\ncontract TimeSecuredLoan is SimpleLoan {\n\n    // Modifiers\n    modifier onlyFullyFundedAfterOneDay { \n        require(onlyAfter(_fullyFundedTime + 1 days), \"Authorized only after 1 day of fully funded\"); \n        _; \n    \n    }\n    \n    modifier onlyRepayAfterTwoDay { \n        require(_status == Status.Repaid, \"Status should be in Repaid\");\n        require(onlyAfter(_repaidTime + 2 days), \"Authorized only after 2 day of repay\"); \n        _; \n    }\n\n    modifier onlyCreatedAfterFiveDay { \n        require(onlyAfter(_creationTime + 5 days), \"Authorized only after contract created 5 days\"); \n        _; \n    }\n\n    /**\n     * @notice Setup the loan request with the borrower address and the loan amount\n     * @dev only the owner (or the loan broker in this case) can setup the borrowing info.\n     */\n    function request(address borrower, uint amount) public {\n        super.request(borrower, amount);\n    }\n\n    /**\n     * @notice Deposit fund to the contract balance\n     * @dev Anyone other than the owner and borrower in this case.\n     */\n    function depositFund(uint IRate) public payable {\n        super.depositFund(IRate);\n    }\n\n    /**\n     * @notice Return the deposit fund to lender\n     * @dev It can only refund when the borrower hasn't withdrawn the fund. Only owner (contract brodker) can\n     * execute the refund.\n     */\n    function refund() public payable {\n        super.refund();\n    }\n    \n    /**\n     * @notice Withdrawing the fund deposited by the lender to borrower account.\n     * @dev The withdraw only allow after 1 day of the loan is fully funded.\n     */\n    function withdrawToBorrower() public payable onlyFullyFundedAfterOneDay {\n        super.withdrawToBorrower();\n    }\n\n    /**\n     * @notice borrower repay the loan amount to the contract address\n     */\n    function repay() public payable {\n        super.repay();\n    }\n\n    /**\n     * @notice Widthdraw fund from contract balance back to lender according to the loan amount\n     * @dev The withdraw only allow after 2 day of the loan is fully repaid.\n     */\n    function withdrawToLenders() public payable onlyRepayAfterTwoDay {\n        super.withdrawToLenders();\n    }\n    \n    /**\n     * @notice default the loan\n     */\n    function toDefault() public onlyCreatedAfterFiveDay {\n        super.toDefault();\n    }\n    \n    /**\n     * @notice to cancel the loan\n     */\n    function cancel() public {\n        super.cancel();\n    }\n\n    /// Internal functions\n\n    /**\n     * @notice validate current time is greater or equal to given time.\n     * @param _time  time in unix epock\n     * @return true if now is greater or equal to given time\n     */\n    function onlyAfter(uint _time) internal view returns(bool) { \n        return now >= _time; \n    }\n}",
  "sourcePath": "/home/devika/FinalYear/blockchain/BctProj/BctProj/contracts/TimeSecuredLoan.sol",
  "compiler": {
    "name": "solc",
    "version": "0.5.16+commit.9c3226ce.Emscripten.clang"
  },
  "schemaVersion": "3.3.4",
  "updatedAt": "2021-12-26T07:47:06.058Z",
  "networkType": "ethereum",
  "devdoc": {
    "details": "This contract is created out of demonstrate one of the security best practices of writing solidty contract  and also a different test cases is written specifically for it.",
    "methods": {
      "balance()": {
        "details": "getter for contract's balance",
        "return": "current balance of the contract"
      },
      "borrower()": {
        "details": "getter for borrower",
        "return": "borrower address."
      },
      "depositFund(uint256)": {
        "details": "Anyone other than the owner and borrower in this case."
      },
      "id()": {
        "details": "getter function for loan id",
        "return": "loan ID in string"
      },
      "info()": {
        "details": "a web helper function get loan properties in one function  instead of calling multiple getter function where the code is now readable.",
        "return": "tuple with loan property values."
      },
      "isOwner()": {
        "return": "true if `msg.sender` is the owner of the contract."
      },
      "lenderAddressAt(uint256)": {
        "details": "helper function to get lender address by index",
        "params": {
          "idx": "position index"
        },
        "return": "lender address"
      },
      "lenderAt(uint256)": {
        "details": "helper function to get lender from the mapping",
        "params": {
          "idx": "the index position in lender address mapping"
        },
        "return": "a lender info in tuples"
      },
      "lenderBy(address)": {
        "details": "helper function to get lender by its address",
        "params": {
          "addr": "lender address"
        },
        "return": "lender's address, lending amount, and repaid amount in tuples."
      },
      "lenderCount()": {
        "details": "getter for lender counter",
        "return": "number of lenders for this contract"
      },
      "loanAmount()": {
        "details": "getter for loan amount",
        "return": "the loan amount requested by the borrower"
      },
      "ownedAmount()": {
        "details": "getter for owned amount",
        "return": "the amount withdraw by the borrower"
      },
      "owner()": {
        "return": "the address of the owner."
      },
      "refund()": {
        "details": "It can only refund when the borrower hasn't withdrawn the fund. Only owner (contract brodker) can execute the refund."
      },
      "renounceOwnership()": {
        "details": "Allows the current owner to relinquish control of the contract."
      },
      "request(address,uint256)": {
        "details": "only the owner (or the loan broker in this case) can setup the borrowing info."
      },
      "resume()": {
        "details": "only only can execute this function"
      },
      "status()": {
        "details": "getter for status",
        "return": "current status according to the loan lifecycle"
      },
      "stop()": {
        "details": "only owner can execute this function."
      },
      "transferOwnership(address)": {
        "details": "Allows the current owner to transfer control of the contract to a newOwner.",
        "params": {
          "newOwner": "The address to transfer ownership to."
        }
      },
      "withdrawToBorrower()": {
        "details": "The withdraw only allow after 1 day of the loan is fully funded."
      },
      "withdrawToLenders()": {
        "details": "The withdraw only allow after 2 day of the loan is fully repaid."
      }
    },
    "title": "Time Secured Simple Loan"
  },
  "userdoc": {
    "methods": {
      "cancel()": {
        "notice": "to cancel the loan"
      },
      "depositFund(uint256)": {
        "notice": "Deposit fund to the contract balance"
      },
      "refund()": {
        "notice": "Return the deposit fund to lender"
      },
      "renounceOwnership()": {
        "notice": "Renouncing to ownership will leave the contract without an owner. It will not be possible to call the functions with the `onlyOwner` modifier anymore."
      },
      "repay()": {
        "notice": "borrower repay the loan amount to the contract address"
      },
      "request(address,uint256)": {
        "notice": "Setup the loan request with the borrower address and the loan amount"
      },
      "resume()": {
        "notice": "Take the contract out of suspend state."
      },
      "stop()": {
        "notice": "Put the contract in suspend state in the even or ermegency"
      },
      "toDefault()": {
        "notice": "default the loan"
      },
      "withdrawToBorrower()": {
        "notice": "Withdrawing the fund deposited by the lender to borrower account."
      },
      "withdrawToLenders()": {
        "notice": "Widthdraw fund from contract balance back to lender according to the loan amount"
      }
    },
    "notice": "Time secured loan inherit simple loan but with time protected modifier on the withdrawToBorrower and withdrawToLenders so the fund can't transfer out from the contract account until the waiting period reached."
  }
}